:02000000B32C1F
:0E000600F201F101F001F801F30100300800F1
:100014007B15FB1F14280130F300F201F101F001FC
:08002400FA0DF20CFF30080098
:08002C00FA1FF2130030080076
:1000340083120313FB01FA01F9018030F800F10C7B
:10004400F00C031C2E287408F90775080318750FA3
:10005400FA070318FB0A0310F01F36287408FA077E
:1000640075080318750FFB07FB0CFA0CF90CF80C58
:10007400031C21287B08F3007A08F2007908F100B8
:060084007808F0000800FE
:10008A00831603131208013EF000F1010318F10A66
:10009A0083123D08F400F5011A200630F2007008B8
:1000AA00F4007108F500720803196028F50CF40CC5
:1000BA00F513FF3E59280430F1007408F000710866
:1000CA0003196B28F00D7010FF3E6528303070055B
:1000DA00F3007408F0007508F100F10CF00CF1134C
:1000EA00F10CF00CF113700895000F3097057308A6
:0400FA00970408005F
:1000FE00831603130711831212150C309704080090
:10010E00831603138710831212150C309D040800FA
:10011E00A0017208031DA4287108F2007008F100F6
:10012E00F001A0157208031DA4287108F200F10158
:10013E00A011201672080319B2282008F302031D1D
:10014E00031CB6280310F21BBA28F00DF10DF20DA8
:10015E00F30BAA28B6280130FC000320BD2802307C
:0E016E00FC000A20BD280430FC00162008000A
:0C017C008312031395011712971208005C
:0C018800831203139B011D129D1208003E
:10019400FB14FB1FD428FF30F300F200F100F00041
:0801A400FA0DF20CFF30080017
:1001AC007B14FB1FE128F201FA1FFF30F200F10073
:0A01BC00F000FA0DF20CFF3008000D
:1001C600831603131208013EF000F1010318F10A29
:1001D60083123D08F400F5011A200630F20070087B
:1001E600F4007108F50072080319FE28F50CF40CEA
:1001F600F513FF3EF7280430F1007408F00071088B
:1002060003190929F00D7010FF3E032930307005DF
:10021600F3007408F0007508F100F10CF00CF1130E
:10022600F10CF00CF11370089B000F309D0573085C
:040236009D0408001B
:06023A00FB15FF30080077
:10024000831203137008F8007108F000F101F20145
:10025000F301FB01FC019630F300FA01F01F36298F
:10026000F809F009F80A0319F00AFA177008F10002
:0C0270007808F000F801F2018F2008006F
:10027C0083120313FB01730803197B297208FA001C
:10028C00F2178E30F302F31F7E29F309F30A0830BC
:10029C007302031C6129F300F10D7208F100F201E5
:1002AC0008307302031C6129F300F10DF10173088E
:1002BC00031D031069297308031969290310F20C33
:1002CC00F10CF30B64297B1B711C7329031C732920
:1002DC00F10A0319F20AF21B8A29FA1F8D29F20975
:1002EC00F109F10A0319F20A8D29F201F1018D29A4
:1002FC007B14FB1F9029F201FA1F9029FF30F200AA
:10030C00F100FA0DF20C90290130FC00922900301A
:10031C00FC009229FF30FC00FC0803199629D6201A
:0A032C007108F0007208F1000800EB
:10033600710DF80DF90D7408F8027508031C750F98
:10034600F902F00DF10D0F30FC00710DF80DF90DED
:100356007408701CB429F8027508031C750FF9029D
:10036600B929F80775080318750FF907F00DF10D8F
:10037600FC0BA8297018C5297408F8077508031816
:08038600750FF90700000800E3
:10038E00831203137408003A031DE2297508003A1C
:10039E00031DE2297608003A031DE2297708003A88
:1003AE00031DE229FF30F000FF30F1007F30F20034
:1003BE00FF30F3007D2A8312031377080319712A85
:1003CE0073080319742A720876068039FA00F21738
:1003DE00F617A0017208F8007108FC007008FD0005
:1003EE007408FD027508031C750FFC027608031CC9
:1003FE00760FF802F801FC01FD01031C0D2A031013
:10040E00F20CF10CF00CF80C0130A0007708F3029E
:10041E00031C172A7E302007F3070318772A1C2A9D
:10042E007E302007F307031C7A2A1830FA07FD0DD9
:10043E00FC0DF80DF00DF10DF20DA00D7408F0028B
:10044E007508031C750FF1027608031C760FF20275
:10045E00760DA004201C352A7D14402A7408F0075E
:10046E0075080318750FF10776080318760AF20758
:10047E007D10FA031F307A05031D1E2A7B1B7D1C7F
:10048E00672A0310F00DF10DF20DA00D7408F002A5
:10049E007508031C750FF1027608031C760FF20225
:1004AE00760D20040139FD070318FC0A0319F80A1A
:1004BE00031D672AF80CFC0CFD0CF30A0319772AAE
:1004CE00FA1FF8137808F2007C08F1007D08F0009E
:1004DE0000307C2A01301D217C2A023003207C2A28
:0E04EE000430CA207C2A08300A2000000800D2
:1004FC008312031312109210F93083169200BE204F
:10050C0012109210F93083169200C420BD014520C0
:10051C00BD01E3207F2087203908BD0045203B0822
:06052C00BD00E320080001
:0E0532008312031322088A00210882000800A9
:100540000030831203133606031DA82A0130350636
:10055000031DC82AA530B900BA01A030BB00BC01F8
:100560007E22083086000E30FB003130FC009430D3
:10057000FD00FD0BB92AFC0BB92AFB0BB92A0000C0
:100580008601A530B900BA019B30BB00BC017E22B8
:1005900000303606031DCE2A02303506031DEE2A32
:1005A000A530B900BA01A030BB00BC017E220230E8
:1005B00086000E30FB003130FC009430FD00FD0B56
:1005C000DF2AFC0BDF2AFB0BDF2A00008601A530A7
:1005D000B900BA019B30BB00BC017E220030360658
:1005E000031DF42A03303506031D142BA530B90072
:1005F000BA01A030BB00BC017E22093086000D305C
:10060000FB00AF30FC00B630FD00FD0B052BFC0BF2
:10061000052BFB0B052B00008601A530B900BA01A4
:100620009B30BB00BC017E2200303606031D1A2B16
:1006300004303506031D3B2BA530B900BA01A030AC
:10064000BB00BC017E22063086000C30FB00F93076
:10065000FC00E530FD00FD0B2B2BFC0B2B2BFB0BCB
:100660002B2B000000008601A530B900BA019B3099
:08067000BB00BC017E22080062
:10067800831203137408003A031D4B2B7508003AC4
:10068800031D4B2BFF30F0007F30F100A42B8312A9
:100698000313FD01F901F80171087004031900340E
:1006A80071087506FA00FA1BFD09FB01F51F612B9D
:1006B800F409F509F40A0319F50AF11F682BF00982
:1006C800F109F00A0319F10A71087504FA00FA1B16
:1006D8007D2B9B217B18902BFD1F0034F009F1091D
:1006E800F00A0319F10AF809F909F80A0319F90ACD
:1006F8000034F51F8C2BF11B882B7108F90070084A
:10070800F800F101F001702BF101F001F00A00345A
:10071800F109F009FB0A6D2BF80A0319F90A7408A4
:100728007802031D702B75087902031D702BF901DF
:10073800F801F00A0319F10AF11F702B0000FF34C9
:020748000800A7
:10074A00831203138E010E088F0000303606031D34
:10075A00B02B01303506031DFE2B08142130FD0095
:10076A00FD0BB52B08102130FD00FD0BBA2B871BA2
:10077A00BF2BBC2B1014871FC32BC02B10100F08C4
:10078A00F100F0010E08F0040030F1047008B7001F
:10079A007108B8002021AE30F4004730F5006B3004
:1007AA00F6008530F700C7213E217008B7007108AE
:1007BA00B80080307106F20080307202031DE72B08
:1007CA0000307002031CF92B8030F00080303806AC
:1007DA007002031DF22B3708FA3C031CF92B370869
:1007EA00F0003808F100A62CFF30F000FF30F100CD
:1007FA00A62C00303606031D042C02303506031DD4
:10080A00522C08152130FD00FD0B092C081121304E
:10081A00FD00FD0B0E2C071B132C102C1014071FA8
:10082A00172C142C10100F08F100F0010E08F00418
:10083A000030F1047008B7007108B8002021AE300A
:10084A00F4004730F5006B30F6008530F700C72119
:10085A003E217008B7007108B80080307106F200B6
:10086A0080307202031D3B2C00307002031C4D2C99
:10087A008030F000803038067002031D462C37089D
:10088A00FA3C031C4D2C3708F0003808F100A62C5E
:10089A00FF30F000FF30F100A62C00303606031DB1
:1008AA00582C03303506031DA62C88142130FD0070
:1008BA00FD0B5D2C88102130FD00FD0B622C071A00
:1008CA00672C642C1014071E6B2C682C10100F0850
:1008DA00F100F0010E08F0040030F1047008B700CE
:1008EA007108B8002021AE30F4004730F5006B30B3
:1008FA00F6008530F700C7213E217008B70071085D
:10090A00B80080307106F20080307202031D8F2C0D
:10091A0000307002031CA12C8030F00080303806B1
:10092A007002031D9A2C3708FA3C031CA12C3708C5
:10093A00F0003808F100A62CFF30F000FF30F1007B
:04094A00A62C0800CF
:10094E0099228A110A128000840AA10A0319A20AA6
:08095E00F003031DA72C0800A3
:1009660083120313A501A601A701A801A901AA01E3
:10097600AB01AC01A030AD000030AE009630AF0048
:100986000030B000B101B2010130B3000030B40054
:10099600F0308316870083128701F03083168800B3
:1009A6008601831286012D08B9002E08BA002F0889
:1009B600BB003008BC007E22900183168501FF3003
:1009C600831285000B30FB002630FC005D30FD00F5
:1009D600FD0BEB2CFC0BEB2CFB0BEB2C00000000B7
:1009E600881E082D081F082D881F082D0130B3000A
:1009F6000030B400881E062D081F062D881F062D00
:100A060005308600FD2C8601992E881A612E081B5A
:100A1600612E881B612E330834040319612E0230BF
:100A2600FB000430FC00BA30FD00FD0B182DFC0B5A
:100A3600182DFB0B182D000086010630FB00133025
:100A4600FC00AD30FD00FD0B262DFC0B262DFB0B0F
:100A5600262D00000000B301B401AB01AC0101304A
:100A6600A3000030A4008030F0008030240670021D
:100A7600031D3F2D2308143C031C602D0330B500D5
:100A86000030B600A5237008A9007108AA00FF303F
:100A96007106031D502DFF307006031D562D28309C
:100AA600A9000030AA002908AB072A080318013E4E
:100AB600AC07A30A0319A40A362D1430F40000303B
:100AC600F5002B08F0002C08F1003C237008A90063
:100AD6007108AA008030F200803071067202031D90
:100AE600762D70082D3C03188C2D8030F000803058
:100AF60032067002031D812D3108033C031C8C2D28
:100B06000130B5000030B600A022B10A0319B20ABE
:100B1600F32C00303206031D922D04303106031DDE
:100B2600AE2DB101B20180302806F00080302A06D1
:100B36007002031DA02D290827020318A82D0330D3
:100B4600B5000030B600A022AD2D0430B50000304F
:100B5600B600A022F32CB101B201AB01AC01013009
:100B6600A3000030A4008030F0008030240670021C
:100B7600031DBF2D2308143C031CE02D0130B500D6
:100B86000030B600A5237008A5007108A600FF3046
:100B96007106031DD02DFF307006031DD62D28309B
:100BA600A5000030A6002508AB0726080318013E5D
:100BB600AC07A30A0319A40AB62D1430F4000030BA
:100BC600F5002B08F0002C08F1003C237008A50066
:100BD6007108A6008030F200803071067202031D93
:100BE600F62D7008193C0318FB2D0A308600F32CED
:100BF600AB01AC010130A3000030A4008030F0004E
:100C0600803024067002031D0A2E2308143C031CA0
:100C16002B2E0230B5000030B600A5237008A700C1
:100C26007108A800FF307106031D1B2EFF307006E9
:100C3600031D212E2830A7000030A8002708AB0787
:100C460028080318013EAC07A30A0319A40A012EBB
:100C56001430F4000030F5002B08F0002C08F100E9
:100C66003C237008A7007108A8008030F20080308D
:100C760071067202031D412E7008233C0318492E8B
:100C86000230B5000030B600A022602E8030280663
:100C9600F00080302A067002031D532E2908270211
:100CA60003185B2E0330B5000030B600A022602E7C
:100CB6000430B5000030B600A022992E881A682E9E
:100CC600081B682E881F682E702E881A6F2E081F24
:100CD6006F2E881F6F2E702E772E0130B3000030D6
:100CE600B40006308600992E881E7E2E081F7E2EA2
:100CF600881B7E2E862E881E852E081B852E881B19
:100D0600852E862E8D2E0130B3000030B4000930BA
:100D16008600992E881E992E081B992E881F992EBB
:100D26000130B3000030B4000A308600F32C9A2E4E
:02400E004A2F37
:00000001FF
